:100000000C945F400C9471400C9471400C947140BE
:100010000C9471400C9471400C9471400C9471409C
:100020000C9471400C9471400C9471400C9471408C
:100030000C9471400C9471400C9471400C9471407C
:100040000C9471400C9471400C9471400C9471406C
:100050000C9471400C9471400C9471400C9471405C
:100060000C9471400C9471400C9471400C9471404C
:100070000C9471400C9471400C9471400C9471403C
:100080000C9471400C9471400C9471400C9471402C
:100090000C9471400C9471400C9471400C9471401C
:1000A0000C9471400C9471400C94714058426A0158
:1000B00073457A457C45B845D0459145CB451124DB
:1000C0001FBECFEFCDBFDFE2DEBF20E2A0E0B0E297
:1000D00001C01D92A138B207E1F70E9450430C9471
:1000E0001B460C9400403BB78BBFFB0186913BBF86
:1000F00008953BB78BBFFB01879196913BBF089555
:1001000042E097C041E095C08093C001882780936A
:10011000C1018093C20147E07CD0CB010895809358
:10012000C40148E076C08091D00108953BB748E112
:100130000C941E413BB74AE10C941E413BB7882703
:1001400099278BBF40E20C941E413BB78BBFCB017C
:1001500042E20C941E413BB70B0143E20C941E415A
:10016000EE27FF2719BEDC0143E24093CA0150E4A9
:100170002DE90D901D9020933400E89532965A9504
:10018000C1F7112408953BB76BBFFA0119BEDC011A
:1001900040E04093CA0150E8879197918D939D93D9
:1001A0005A95D1F73BBF08953BB78BBFCB0144E2D3
:1001B0000C941E413BB78BBFCB0145E20C941E4112
:1001C0003BB746E20C941E413BB78BBFCB014AE2E2
:1001D0000C941E413BB78BBFCB014CE20C941E41EB
:1001E0003BB78BBFCB014DE20C941E4148E311C0DD
:1001F00049E30FC028ED2093340021E02093CC0187
:1002000008952091CF0127FDFCCF22272093CA011A
:1002100008954093CA0128ED31E0209334003093D3
:10022000CB016091C4017091C5018091C6019927ED
:100230000895FC014093CA0184910895FC01409304
:10024000CA012DE920933400E89511243BBF08959D
:100250008627682F62956827062E66956695602525
:10026000062E669560256770082E892F669507947F
:100270006795902D86270694679590258627089583
:10028000909100209230F0F78091C10987FFFACF5A
:1002900081E0809300208091C00908959091002012
:1002A000923058F48093C0098091C10986FFFCCF39
:1002B0008091C10980648093C10908950E944041E2
:1002C0008F930E9440419F91882F08958F929F9213
:1002D000AF92BF92CF92DF92EF92FF921F93CF9394
:1002E000DF93EC01162F7A0141E0A42E40E2B42EF8
:1002F000C12CD12CCC16DD0618F40E94404101C05F
:100300008FEFF50181935F01FFEFCF1ADF0A80E8DD
:10031000C816D10479F71534B1F4F7016081718101
:10032000AE0181E090E20E94EF45F701808191816A
:10033000A281B3818C0F9D1FA11DB11D808391836C
:10034000A283B38334C0163411F0153571F5F7016B
:1003500080819181A281B381D695C7954C015D01C1
:100360008C0E9D1EA11CB11C80829182A282B38240
:10037000163461F4BC01CD01660F771F881F991FE9
:1003800021E041E050E20E94294511C0153579F481
:1003900081E090E20E94B0400E9496400E9401419C
:1003A0000E949A400E94014102C08FE301C08DE08B
:1003B000DF91CF911F91FF90EF90DF90CF90BF9092
:1003C000AF909F908F9008958F929F92AF92BF921F
:1003D000CF92DF92FF920F931F93CF93DF936C0125
:1003E000F62E8A0125E4621318C0FA01608171813A
:1003F000AC0181E090E20E94E345F80180819181A7
:10040000A281B3818C0D9D1DA11DB11D808391839F
:10041000A283B383C1E0D0E25CC0F6E46F1731F091
:1004200025E5621719F080E568135DC0F801808149
:100430009181A281B381880F991FAA1FBB1F80835E
:100440009183A283B3835601C0E0D0E0F6E4FF12AB
:100450000CC04E012FEF821A920AF801608171815F
:10046000828193810E94734018C0F5E5FF120AC093
:100470004E012FEF821A920AF801808191810E9429
:1004800082400BC0F0E5FF120CC04E012FEF821A24
:10049000920AF80180810E948040CF5FDF4D8883FF
:1004A000E4010E940141F80180819181A281B38120
:1004B0000196A11DB11D80839183A283B383F1E0D6
:1004C000AF1AB10819F6B695A79597958795F801D3
:1004D0009DCFCE01815090428C159D0524F48991C9
:1004E0000E944E41F6CFDF91CF911F910F91FF9067
:1004F000DF90CF90BF90AF909F908F9008958F9294
:100500009F92AF92BF92CF92DF92EF92FF920F93A2
:100510001F93CF93DF934B015C0169017A01C0E81F
:10052000D0E000E010E0C114D104E104F104F9F0DE
:10053000C038D10569F4B501A40181E090E20E94C0
:10054000C34080E8880E911CA11CB11CC0E0D0E023
:10055000FE01EF5FFF4D6081C8010E9428418C01C0
:10056000219681E0C81AD108E108F108DCCFC80162
:10057000DF91CF911F910F91FF90EF90DF90CF907F
:10058000BF90AF909F908F900895CF92DF92EF929F
:10059000FF920F931F93CF93DF9340E85FE760E0F4
:1005A00070E081E090E20E94C34080917B2088351A
:1005B00009F06DC080917C20823409F068C0809180
:1005C0007D20893409F063C080917E20863409F053
:1005D0005EC0C0917F20D0E0DC2FCC2780918020AE
:1005E000C82B2AEF3FE340E050E060E070E480E099
:1005F00090E00E947F4206E010E06FEF0E942841E9
:1006000001501109D1F7C817D90751F0DF91CF91E7
:100610001F910F91FF90EF90DF90CF900C94914538
:10062000C12CD12C7601D2E0CFEFD0930706B701D1
:10063000A601505C6F4F7F4F81E090E20E94C34063
:1006400080E8C8168FE3D806E104F10499F021E0B0
:1006500041E050E2C701B6010E94294580E8C80E7A
:10066000D11CE11CF11CC11480E4D806E104F104A2
:10067000E1F6CCCFC0937B20C0937C20C0937D203B
:10068000C0937E20C0937F20C0938020E0CFDF9175
:10069000CF911F910F91FF90EF90DF90CF90089531
:1006A0008F929F92AF92BF92EF92FF920F931F9300
:1006B000CF93DF9300D000D0CDB7DEB719821A8276
:1006C0001B821C821092002082E08093010680939E
:1006D00005060E945E4588E1809372062091002005
:1006E00030E58CED95E0A0E0B0E042E00097A10598
:1006F000B10521F00197A109B10907C04093070690
:1007000031508CED95E0A0E0B0E05091C10957FD6B
:1007100002C010E002C021E011E0A895112339F0D9
:100720002093002011E0E12CF12C02E014C03111E3
:10073000DDCF20930020F7CF803509F440C08C3402
:1007400009F43DC0853409F0E6C08DE00E944E41B9
:1007500010E00E940141112309F45EC100930706D5
:100760000E944041982F813611F489E551C18134AE
:1007700029F40E945E41A0E0B0E079C0883439F4E9
:100780000E944041A82F0E945E41BB2770C0853661
:10079000C1F4812C912C5401C501B4010E94DA40AE
:1007A0000E94014120E8820E911CA11CB11C811401
:1007B00080E89806A104B10479F70E9450458DE0C5
:1007C00027C1823641F489E50E944E4180E00E94B3
:1007D0004E4180E81DC1823469F40E945E417C0173
:1007E0000E944041AE014F5F5F4F682FC7010E94DA
:1007F00066410EC1873669F40E945E417C010E9409
:100800004041AE014F5F5F4F682FC7010E94E44136
:1008100001C1823591F489819A81AB81BC81BC018F
:10082000CD01660F771F881F991F0E947940182FEE
:10083000892F0E944E41812F45C0833629F40E94A2
:100840004041E82EF12CBBCF8334B1F40E944041EB
:10085000F82A89819A81B701880F991F0E94AB40BD
:1008600089819A81AB81BC810196A11DB11D8983CB
:100870009A83AB83BC83A3CF8D36A1F489819A81FF
:10088000AB81BC81811520E49207A105B10508F078
:10089000BEC0BC01CD01660F771F881F991F0E9443
:1008A000D4408DCF843441F40E944041682F898127
:1008B0009A810E94F945D4CF843691F489819A8136
:1008C0000E94E7450E944E4189819A81AB81BC819B
:1008D0000196A11DB11D89839A83AB83BC839AC005
:1008E0008C3629F40E9440410E948F4068CF8237A5
:1008F00019F40E9493408CC0863411F480E008C043
:100900008E3411F481E004C0813509F015CF82E006
:100910000E9484407DC0803711F483E579C084371C
:1009200029F48BE70E944E4180E072C088E8890F6D
:10093000823010F0943519F40E94404140CF933535
:10094000A1F488E50E944E4182E40E944E418FE668
:100950000E944E418FE60E944E4184E70E944E4124
:100960008BE20E944E418BE253C0963529F481E31D
:100970000E944E4187E34CC0933741F48CE40E94BF
:100980004E4185E90E944E418EE142C09836E9F51C
:100990000E944041863409F128F4813481F0823488
:1009A00021F117C0813681F0843799F420E030E4DA
:1009B00040E050E060E070E480E090E01EC020E0A5
:1009C00030E840E050E00DC020E030E440E050E08E
:1009D00008C08FE30E944E41C1CE20E030E940E0E4
:1009E00050E060E070E0CB0108C020E030E140E082
:1009F00050E060E070E880E090E00E947F42182FB5
:100A0000892F0E944E41812F03C09B3119F08FE343
:100A10000E944E4111E09DCE0E94C5420E946A454F
:100A20001092720682E080930206809306060C9470
:100A3000000080E090E02496CDBFDEBFDF91CF9133
:100A40001F910F91FF90EF90BF90AF909F908F906C
:100A50000895CF92DF92EF92FF92CF93DF931F9290
:100A6000CDB7DEB76B017C01CA0129830E94B0407B
:100A70002981C701B601222319F00E94DA4002C081
:100A80000E94D4400F90DF91CF91FF90EF90DF90C4
:100A9000CF900C9401418091CF0187FDFCCF089548
:100AA0000E944B4580E38093CA01EBECF1E021E02A
:100AB00030E088ED90E084BF2083089588E0809343
:100AC0006106E0ECF9E083E1868380EC87838CE1CA
:100AD00083830895E0ECF9E013821682178288E0A0
:100AE00080936206089527E031E0FC012083318382
:100AF00080E0089582E00895CF93CFB7613020E879
:100B000072078105910550F4F8940E94A5400E9457
:100B100001411092CA01CFBF80E001C083E0CF91B4
:100B20000895CF92DF92EF92FF92CF93CFB7F894D0
:100B3000C12C80E4D82EE12CF12CC701B6010E9413
:100B4000A5400E94014180E8C80ED11CE11CF11CA7
:100B5000C11480E8D806E104F10479F71092CA01C3
:100B6000CFBF80E0CF91FF90EF90DF90CF900895BE
:100B7000CF93CFB7613030E873078105910540F41A
:100B8000F8940E9429451092CA01CFBF80E001C0AD
:100B900083E0CF910895705C8F4F9F4F0C94B845C0
:100BA000CF93CFB7F8940E94B0400E9496400E9425
:100BB00001410E949A400E9401411092CA01CFBF98
:100BC00080E0CF9108956050704F0C94124603D08E
:100BD000808199270895FC01E050F04F0895DC01D1
:100BE000CB0103C02D910E94FA4541505040D0F7EF
:100BF0000895262FAF93BF93E0ECF1E0378537FDE2
:100C0000FDCF808391831282DC01A050B04F2C93E2
:100C100025E3228728ED31E024BF33870196BF9179
:100C2000AF910895FB01DC0102C001900D9241508B
:0A0C30005040D8F70895F894FFCF64
:00000001FF
